:0400000012EF06F005
:1008000000434F4E54524F4C4C4552203C3C003E0E
:0D0810003E20524F424F542041524D0000F7
:10081E0002EC05F0280E476E0F0E486EEAEC05F05E
:10082E00020E386E010E3EEC05F0280E396ECEEC3F
:10083E0005F0280E476E010E486EEAEC05F0010E2B
:10084E00386E020E3EEC05F0280E396ECEEC05F039
:10085E003D0E566EE10E556E400EE82EFED7552E0D
:10086E00FCD7562EFAD704EC06F0310E386E000E79
:10087E00396E000EBDEC04F0070E566E170E556E57
:10088E006A0EE82EFED7552EFCD7562EFAD700D07C
:10089E00899A000E27EC06F04E0E556EEB0EE82EE2
:1008AE00FED7552EFCD70000898A4E0E556EEB0EE4
:1008BE00E82EFED7552EFCD700004FEF04F000EFC8
:1008CE0000F03A50D8B46EEF04F070EF04F078EF09
:1008DE0004F03A50D8A476EF04F078EF04F07DEFF0
:1008EE0004F038502BEC06F0BCEF04F03A50D96E01
:1008FE00DA6A090ED926DE50DE10D8B489EF04F07C
:10090E008BEF04F0A4EF04F03A50D96EDA6A090EB8
:10091E00D9263A50E16EE26A020EE126DE50E65C1E
:10092E00E650800A3F6EDE50800A3F58D8B0A2EFE4
:10093E0004F0A4EF04F0BCEF04F03A50D96EDA6A7A
:10094E00020ED926DF503B6E3A50D96EDA6ADF506E
:10095E003B24D96EDA6A38C0DFFF3A50D96EDA6AB4
:10096E00020ED926DE2A000EDD2212003A6E0F0E7E
:10097E00C16E93809392929A949EC6503A18F00B41
:10098E003A18C66E310E3818D8A4D0EF04F0D2EF54
:10099E0004F0D6EF04F0C688C78CFBEF04F0320EDD
:1009AE003818D8A4DDEF04F0DFEF04F0E3EF04F025
:1009BE00C698C78CFBEF04F0330E3818D8A4EAEFB4
:1009CE0004F0ECEF04F0F0EF04F0C688C79CFBEFE8
:1009DE0004F0340E3818D8A4F7EF04F0F9EF04F051
:1009EE00FBEF04F0C698C79C39B002D0C79E01D069
:1009FE00C78EC68A1200956A8C6A939693988A96C9
:100A0E008A988A96380E8C6E8A88040E3C6E0C0E6E
:100A1E003B6E340EE82EFED73B2EFCD73C2EFAD77B
:100A2E008A980C0E8C6E8A88040E3C6E0C0E3B6EF1
:100A3E00340EE82EFED73B2EFCD73C2EFAD78A98E2
:100A4E0004EC06F0020E8C6E8A88040E3C6E0C0EC0
:100A5E003B6E340EE82EFED73B2EFCD73C2EFAD73B
:100A6E008A98010E386E010E3EEC05F012003A6EB9
:100A7E008A966EEF05F038507F0F8C6E8A884E0E78
:100A8E00396EEB0EE82EFED7392EFCD700008A9871
:100A9E0079EF05F03850BF0F8C6E8A884E0E396E86
:100AAE00EB0EE82EFED7392EFCD700008A9879EF90
:100ABE0005F0800E8C6E8A884E0E396EEB0EE82E87
:100ACE00FED7392EFCD700008A9879EF05F03A5000
:100ADE00010AD8B442EF05F0030AD8B451EF05F07D
:100AEE0060EF05F012004150D96EDA6ADFCFF6FFE3
:100AFE00080EF76E0800F550250AD8A489EF05F008
:100B0E008BEF05F09DEF05F04150D96EDA6ADF2AC2
:100B1E00000E226E000E216E21C027F0236824687D
:100B2E004150D96EDA6ADF2AAEEF05F04150D96E28
:100B3E00DA6ADFCFF6FF080EF76E0800F550386E52
:100B4E00396A40C03AF068EC04F097EF05F01200F5
:100B5E0044C046F0BBEF05F043C040F0460E416E78
:100B6E0045C042F07AEC05F046C0F6FF080EF76E6F
:100B7E000800F5500009D8A4C7EF05F0C9EF05F03D
:100B8E00B3EF05F0000E446E000E436E1200000E21
:100B9E003B6E000E3A6EDDEF05F039503A24D96EF9
:100BAE00DA6ADF501DEC06F03A4A3B2A39503A24F5
:100BBE00D96EDA6ADF50D8A4E7EF05F0E9EF05F059
:100BCE00D4EF05F01200490E496E47C04AF0000EF0
:100BDE004D6E000E4C6E000E546E000E536E4A0E8D
:100BEE00436E48C044F0490E456EAFEC05F04750D9
:100BFE004C24D96EDA6ADF6A12008A96010E8C6E68
:100C0E008A884E0E386EEB0EE82EFED7382EFCD7A5
:100C1E0000008A98120000EE01F0370EEE6AE80628
:100C2E00FDE1000EF86E00010FEF04F0386E8A86BB
:100C3E0038C08CFF8A88C80EE82EFED78A9812001C
:0A0C4E00386E38C0C9FF1200120012
:020000040030CA
:0E000000040E191EFF8385FF0FC00FE00F4096
:00000001FF
