:0400000007EF00F016
:0A0008005F82ABED0EF07EEF0FF00B
:1008000000434F4E54524F4C4C4552203C3C003E0E
:0D0810003E20524F424F542041524D0000F7
:10081E002B50800B346E2B502B24366E2AAE1AEFD3
:10082E0004F01CEF04F01DEF04F036803650D8B4FF
:10083E0023EF04F025EF04F039EF04F03628D8A4A6
:10084E002BEF04F02DEF04F035EF04F0000E286EC0
:10085E00000E296E000E2A6E000E2B6E2A8E2B6A4B
:10086E0041EF04F0000E286E000E296E000E2A6E67
:10087E00000E2B6E2F50800B356E34503518D8B4B9
:10088E004BEF04F04DEF04F04EEF04F0348C2F508C
:10089E002F24356E2EAE56EF04F058EF04F059EFBC
:1008AE0004F035803550D8B45FEF04F061EF04F0FA
:1008BE0075EF04F03528D8A467EF04F069EF04F063
:1008CE0071EF04F0000E2C6E000E2D6E000E2E6ECB
:1008DE00000E2F6E2E8E2F6A7DEF04F0000E2C6E02
:1008EE00000E2D6E000E2E6E000E2F6E3650355CE5
:1008FE00D8B084EF04F086EF04F0ADEF04F034AC22
:10090E008BEF04F08DEF04F08FEF04F0800E341AAD
:10091E0036C037F035C036F037C035F028C037F066
:10092E002CC028F037C02CF029C037F02DC029F08C
:10093E0037C02DF02AC037F02EC02AF037C02EF067
:10094E002BC037F02FC02BF037C02FF0376A365040
:10095E0035C030F0316A305E000E315A31BEC1EF13
:10096E0004F0315009E11A0E305CD8A0C1EF04F04A
:10097E00C3EF04F0FAEF04F0285029102A102B10C0
:10098E00D8A4CCEF04F0CFEF04F0010ED0EF04F0BA
:10099E00000E376E000E286E000E296E000E2A6EA7
:1009AE00000E2B6E35C036F003EF05F037A0E2EFE8
:1009BE0004F0E4EF04F0EAEF04F0D89037300109C8
:1009CE00376EECEF04F0D890373228A0F1EF04F038
:1009DE00F3EF04F0F4EF04F0378E2B342B322A327F
:1009EE0029322832362A3550365CD8A001EF05F070
:1009FE0003EF05F0DDEF04F034BC08EF05F00AEF6D
:100A0E0005F04AEF05F03650D8A410EF05F012EFBE
:100A1E0005F01CEF05F0000E286E000E296E000E7C
:100A2E002A6E000E2B6E69EF06F02C5028262D50E4
:100A3E0029222E502A222F502B222BA029EF05F0EF
:100A4E002BEF05F0D7EF05F037A030EF05F032EFC2
:100A5E0005F038EF05F0D89037300109376E3AEFD0
:100A6E0005F0D890373228A03FEF05F041EF05F0A2
:100A7E0042EF05F0378E2B342B322A3229322832B0
:100A8E00362AD7EF05F02C50285C2D5029582E50C1
:100A9E002A582B50800A306E2F50800A3058D8B00A
:100AAE005BEF05F05DEF05F088EF05F028502C5C4C
:100ABE00306E29502D58316E2A502E58326E2B50D2
:100ACE002F58336EFF0E3024286EFF0E3120296E04
:100ADE00FF0E32202A6EFF0E33202B6E800E341A3C
:100AEE00376C3750D8A47EEF05F080EF05F090EF0D
:100AFE0005F0010E2826000E29222A222B2290EF25
:100B0E0005F02C50285E2D50295A2E502A5A2F505F
:100B1E002B5A285029102A102B10D8A499EF05F023
:100B2E009BEF05F0D0EF05F03750D8A4A1EF05F0FC
:100B3E00A3EF05F0D0EF05F0000E286E000E296E23
:100B4E00000E2A6E000E2B6E69EF06F0D890283636
:100B5E0029362A362B3637AEB7EF05F0B9EF05F04A
:100B6E00BAEF05F0288037A0BFEF05F0C1EF05F012
:100B7E00C5EF05F0D8803736C7EF05F0D890373679
:100B8E003650D8B4CDEF05F0CFEF05F0D0EF05F02D
:100B9E0036062AAED5EF05F0D7EF05F0ADEF05F02E
:100BAE00356A37AEDDEF05F0DFEF05F0F7EF05F054
:100BBE0037C030F07F0E3016D8B4E8EF05F0EAEF0C
:100BCE0005F0EEEF05F0010E356EF7EF05F028A0FB
:100BDE00F3EF05F0F5EF05F0F7EF05F0EAEF05F0AE
:100BEE003550D8B4FDEF05F0FFEF05F02AEF06F013
:100BFE00010E2826000E29222A222B222BA00AEFD4
:100C0E0006F00CEF06F02AEF06F028C030F029C0EF
:100C1E0031F02AC032F02BC033F03334333232325B
:100C2E003132303230C028F031C029F032C02AF0D3
:100C3E0033C02BF03628D8B427EF06F029EF06F094
:100C4E002AEF06F0362A3628D8B430EF06F032EF07
:100C5E0006F03AEF06F03650D8A438EF06F03AEF29
:100C6E0006F04BEF06F0000E286E000E296E000EF9
:100C7E002A6E000E2B6E3650D8A448EF06F04AEFBF
:100C8E0006F04BEF06F0346A36A050EF06F052EF46
:100C9E0006F055EF06F02A8E56EF06F02A9ED890F3
:100CAE0036302B6E34AE5EEF06F060EF06F061EF7D
:100CBE0006F02B8E28C028F029C029F02AC02AF071
:100CCE002BC02BF012001250800B1B6E12501224F0
:100CDE00216E11AE75EF06F077EF06F078EF06F0A5
:100CEE0021802150D8B47EEF06F080EF06F093EF0E
:100CFE0006F02128D8A486EF06F088EF06F090EFD4
:100D0E0006F0000E0F6E000E106E000E116E000E2D
:100D1E00126E118E9BEF06F0000E0F6E000E106E0F
:100D2E00000E116E000E126E1650800B1B1A16500E
:100D3E001624206E15AEA6EF06F0A8EF06F0A9EF6A
:100D4E0006F020802050D8B4AFEF06F0B1EF06F0D9
:100D5E00C4EF06F02028D8A4B7EF06F0B9EF06F0DE
:100D6E00C1EF06F0000E136E000E146E000E156E1F
:100D7E00000E166E158ECCEF06F0000E136E000EE2
:100D8E00146E000E156E000E166E2050D8B4D2EFF3
:100D9E0006F0D4EF06F0DCEF06F02150D8A4DAEF1F
:100DAE0006F0DCEF06F0E6EF06F0000E0F6E000E1A
:100DBE00106E000E116E000E126E7CEF08F01550C4
:100DCE000F02F3CF26F0F4CF27F026501C6E1D6ACB
:100DDE001E6A1F6A2750226E236A246A256A1450DF
:100DEE001002F3CF26F0F4CF27F026501C26000E6B
:100DFE001D221E221F2227502226000E23222422CD
:100E0E00252213501102F3CF26F0F4CF27F02650EF
:100E1E001C26000E1D221E221F2227502226000EE7
:100E2E002322242225221EC01FF01DC01EF01CC02E
:100E3E001DF01C6A13501002F3CF26F0F4CF27F0EA
:100E4E0026501C2627501D22000E1E22000E1F2289
:100E5E0014500F02F3CF26F0F4CF27F026501C26A5
:100E6E0027501D22000E1E22000E1F221EC01FF034
:100E7E001DC01EF01CC01DF01C6A13500F02F3CFD4
:100E8E0026F0F4CF27F026501C2627501D22000EE8
:100E9E001E22000E1F2215501002F3CF26F0F4CFA3
:100EAE0027F02650222627502322000E2422000E41
:100EBE00252214501102F3CF26F0F4CF27F026503E
:100ECE00222627502322000E2422000E2522155002
:100EDE001102F3CF26F0F4CF27F02650176E2750CD
:100EEE00186E196A1A6A19C01AF018C019F017C0CC
:100EFE0018F0176A17502226185023221950242250
:100F0E001A5025221CC017F01DC018F01EC019F073
:100F1E001FC01AF0190E99EF07F0D8901A32193235
:100F2E0018321732E82E94EF07F017502226185079
:100F3E002322195024221A5025221EC01FF01DC034
:100F4E001EF01CC01DF01C6A205021C017F0186A3C
:100F5E001726000E1822820E1724266EFF0E18205A
:100F6E00276ECFEF07F0D89022362336243625365B
:100F7E001FAEC4EF07F0C6EF07F0C7EF07F02280F1
:100F8E00D8901C361D361E361F362606D8A02706CC
:100F9E0024AED4EF07F0D6EF07F0BAEF07F0206AD1
:100FAE001FAEDCEF07F0DEEF07F002EF08F0FF0EEA
:100FBE001C14176EFF0E1D14186EFF0E1E14196EE4
:100FCE007F0E1F141A6E1750181019101A10D8B45D
:100FDE00F3EF07F0F5EF07F0F9EF07F0010E206ED3
:100FEE0002EF08F022A0FEEF07F000EF08F002EF8C
:100FFE0008F0F5EF07F02050D8B408EF08F00AEF2C
:10100E0008F02EEF08F0010E2226000E23222422D5
:10101E00252225A015EF08F017EF08F02EEF08F0A7
:10102E0022C017F023C018F024C019F025C01AF002
:10103E001A341A3219321832173217C022F018C069
:10104E0023F019C024F01AC025F0264A272A27BEFD
:10105E0039EF08F0275008E12628D8A039EF08F01C
:10106E003BEF08F045EF08F0000E226E000E236EE7
:10107E00800E246E7F0E256E72EF08F027BE52EFA3
:10108E0008F0275006E12604D8B050EF08F052EFD2
:10109E0008F05DEF08F0000E226E000E236E000EBB
:1010AE00246E000E256E1B6A72EF08F026C021F02A
:1010BE00FF0E2216FF0E23167F0E2416000E251687
:1010CE0021A06CEF08F06EEF08F06FEF08F0248EA1
:1010DE00D8902130256E1B50251222C00FF023C050
:1010EE0010F024C011F025C012F012004350800BF6
:1010FE00506E43504324576E42AE88EF08F08AEF8D
:10110E0008F08BEF08F057805750D8B491EF08F0E5
:10111E0093EF08F0A7EF08F05728D8A499EF08F03E
:10112E009BEF08F0A3EF08F0000E406E000E416E2C
:10113E00000E426E000E436E428E436AAFEF08F011
:10114E00000E406E000E416E000E426E000E436E9B
:10115E004750800B501A47504724586E46AEBAEF90
:10116E0008F0BCEF08F0BDEF08F058805850D8B426
:10117E00C3EF08F0C5EF08F0D9EF08F05828D8A44F
:10118E00CBEF08F0CDEF08F0D5EF08F0000E446E6F
:10119E00000E456E000E466E000E476E468E476A76
:1011AE00E1EF08F0000E446E000E456E000E466E26
:1011BE00000E476E4450451046104710D8A4EAEF73
:1011CE0008F0ECEF08F004EF09F0000E406E000E90
:1011DE00416E000E426E000E436E800E42127F0E66
:1011EE0043125050431240C040F041C041F042C043
:1011FE0042F043C043F044EF0AF05750D8A40AEF30
:10120E0009F00CEF09F016EF09F0000E406E000E1B
:10121E00416E000E426E000E436E44EF0AF05850BF
:10122E0057C048F0496A485E000E495A7F0E48245E
:10123E00516E000E4920526E40C04CF041C04DF030
:10124E0042C04EF043C04FF0000E406E000E416E95
:10125E00000E426E000E436E000E536E000E546E64
:10126E00000E556E000E566E586A76EF09F0585005
:10127E00D8B444EF09F046EF09F05DEF09F0D890CD
:10128E004C364D364E364F36D89040364136423675
:10129E00433656AE55EF09F057EF09F058EF09F007
:1012AE004080D890533654365536563644504C5CA2
:1012BE0045504D5846504E5847504F58D8A06AEF9B
:1012CE0009F06CEF09F075EF09F0568C44504C5E46
:1012DE0045504D5A46504E5A47504F5A582A190E9D
:1012EE0058647CEF09F07EEF09F03EEF09F04C50A8
:1012FE004D104E104F10D8B487EF09F089EF09F05A
:10130E00A1EF09F05380A1EF09F0D8904036413695
:10131E004236433656AE96EF09F098EF09F099EF44
:10132E0009F04080D890533654365536563651060D
:10133E00D8A0520642AEA6EF09F0A8EF09F08CEF46
:10134E0009F0586A56AEAEEF09F0B0EF09F0D4EFDF
:10135E0009F0FF0E5314486EFF0E5414496EFF0E23
:10136E0055144A6E7F0E56144B6E485049104A1053
:10137E004B10D8B4C5EF09F0C7EF09F0CBEF09F069
:10138E00010E586ED4EF09F040A0D0EF09F0D2EF65
:10139E0009F0D4EF09F0C7EF09F05850D8B4DAEFDE
:1013AE0009F0DCEF09F000EF0AF0010E4026000E06
:1013BE0041224222432243A0E7EF09F0E9EF09F070
:1013CE0000EF0AF040C048F041C049F042C04AF078
:1013DE0043C04BF04B344B324A324932483248C04C
:1013EE0040F049C041F04AC042F04BC043F0514A70
:1013FE00522A52BE0BEF0AF0525008E15128D8A0E3
:10140E000BEF0AF00DEF0AF018EF0AF0000E526E15
:10141E005168000E406E000E416E000E426E000EC0
:10142E00436E52BE25EF0AF0525006E15104D8B079
:10143E0023EF0AF025EF0AF032EF0AF0000E526E9B
:10144E00000E516E000E406E000E416E000E426E8A
:10145E00000E436E506A51C057F057A039EF0AF094
:10146E003BEF0AF03EEF0AF0428E3FEF0AF0429E4B
:10147E00D8905730436EF8EF08F01200FDEC0DF0E7
:10148E000D0EB8EC0FF0FDEC0DF08FEC0FF0C3EC81
:10149E000FF09392B10E106E0F0E116E64EC0FF0F2
:1014AE00020E016E010E39EC0EF0B10E026E48EC1A
:1014BE000FF0B10E106E010E116E64EC0FF0010EF6
:1014CE00016E020E39EC0EF0B10E026E48EC0FF00A
:1014DE003D0E5A6EE10E596E400EE82EFED7592E75
:1014EE00FCD75A2EFAD7A0EC0FF0310E016E000E7B
:1014FE00026E000EB8EC0DF0070E5A6E170E596EF6
:10150E006A0EE82EFED7592EFCD75A2EFAD700D0E7
:10151E00000EDEEC0EF001C0ACF002C0ADF0010E1C
:10152E00DEEC0EF001C0A8F002C0A9F0000E000122
:10153E00C16F000EC26F000EC36F000EC46F000E9F
:10154E00C56FC00EC66F7F0EC76F440EC86F000EFC
:10155E00C96F000ECA6F7A0ECB6FC30ECC6F000E22
:10156E00CD6F000ECE6F7A0ECF6F430ED06FACC024
:10157E00D1F0ADC0D2F033EC0CF0C1C05DF0C2C002
:10158E005EF0000E0001C16F000EC26F000EC36F41
:10159E00000EC46F000EC56FC00EC66F7F0EC76FF4
:1015AE00440EC86F000EC96F000ECA6F7A0ECB6F55
:1015BE00C30ECC6F000ECD6F000ECE6F7A0ECF6FB6
:1015CE00430ED06FA8C0D1F0A9C0D2F033EC0CF00E
:1015DE00C1C0AAF0C2C0ABF05EBE01EF0BF05E5010
:1015EE0007E11E0E5D5CD8B0FFEF0AF001EF0BF0C5
:1015FE0019EF0BF05EAE0DEF0BF0E30E5D5CFF0E20
:10160E005E58D8B00DEF0BF00FEF0BF011EF0BF0A3
:10161E0019EF0BF0000E5E6E000E5D6E5DC05DF09C
:10162E005EC05EF00001ABBF28EF0BF0AB5107E1DF
:10163E001E0EAA5DD8B026EF0BF028EF0BF040EF90
:10164E000BF0ABAF34EF0BF0E30EAA5DFF0EAB5910
:10165E00D8B034EF0BF036EF0BF038EF0BF040EF65
:10166E000BF0000EAB6F000EAA6FAAC0AAF0ABC0B3
:10167E00ABF0899A5D50BFEC0FF04E0E596EEB0E2B
:10168E00E82EFED7592EFCD70000898A4E0E596ED1
:10169E00EB0EE82EFED7592EFCD700008FEF0AF086
:1016AE0007EF00F0096E0950D8B460EF0BF062EF4F
:1016BE000BF084EF0BF004BE69EF0BF067EF0BF04D
:1016CE0084EF0BF001C005F002C006F003C007F076
:1016DE0004C008F0051E061E071E081E052A000E71
:1016EE0006220722082205C00BF006C00CF007C028
:1016FE000DF008C00EF08CEF0BF001C00BF002C025
:10170E000CF003C00DF004C00EF0015002100310D7
:10171E000410D8A495EF0BF097EF0BF0A1EF0BF0A0
:10172E00000E016E000E026E000E036E000E046EB1
:10173E0032EF0CF0960E0A6EABEF0BF00A2AD89031
:10174E000E320D320C320B32000E0B14056E000EE3
:10175E000C14066E000E0D14076EFE0E0E14086E9F
:10176E000550061007100810D8A4C0EF0BF0C2EFFA
:10177E000BF0A5EF0BF0D0EF0BF00A2A010E0B26A3
:10178E00000E0C220D220E22D8900E320D320C328B
:10179E000B32000E0B14056E000E0C14066E000EAE
:1017AE000D14076EFF0E0E14086E0550061007106E
:1017BE000810D8A4E5EF0BF0E7EF0BF0C4EF0BF039
:1017CE00EFEF0BF00A06D8900B360C360D360E36B0
:1017DE000DBEF4EF0BF0F6EF0BF0FEEF0BF0020E7A
:1017EE000A60FCEF0BF0FEEF0BF0E9EF0BF00AB026
:1017FE0003EF0CF005EF0CF006EF0CF00D9ED890F9
:10180E000A320AC005F0066A076A086A05C008F0BF
:10181E00076A066A056A05500B1206500C1207502D
:10182E000D1208500E120950D8B420EF0CF022EF12
:10183E000CF02AEF0CF004BE29EF0CF027EF0CF0A1
:10184E002AEF0CF00E8E0BC001F00CC002F00DC092
:10185E0003F00EC004F01200C9C03CF0CAC03DF047
:10186E00CBC03EF0CCC03FF0CDC038F0CEC039F08A
:10187E00CFC03AF0D0C03BF006EC0FF038C040F0CD
:10188E0039C041F03AC042F03BC043F0C1C03CF019
:10189E00C2C03DF0C3C03EF0C4C03FF0C5C038F07A
:1018AE00C6C039F0C7C03AF0C8C03BF006EC0FF026
:1018BE0038C044F039C045F03AC046F03BC047F05E
:1018CE007DEC08F040C0D9F041C0DAF042C0DBF048
:1018DE0043C0DCF0C9C038F0CAC039F0CBC03AF012
:1018EE00CCC03BF0C1C013F0C2C014F0C3C015F0A1
:1018FE00C4C016F0D9C00FF0DAC010F0DBC011F082
:10190E00DCC012F06AEC06F00FC03CF010C03DF0E7
:10191E0011C03EF012C03FF006EC0FF038C0D3F00D
:10192E0039C0D4F03AC0D5F03BC0D6F0D3C02CF0BD
:10193E00D4C02DF0D5C02EF0D6C02FF0D9C013F0E4
:10194E00DAC014F0DBC015F0DCC016F0D1C001F027
:10195E00D2C002F0000E02BEFF0E036E046E010E28
:10196E0059EC0BF001C00FF002C010F003C011F0E3
:10197E0004C012F06AEC06F00FC028F010C029F077
:10198E0011C02AF012C02BF00FEC04F028C038F072
:10199E0029C039F02AC03AF02BC03BF0E0EC0CF035
:1019AE0038C0D7F039C0D8F0D7C0C1F0D8C0C2F017
:1019BE0012003A343B34416E4150D8A4E9EF0CF09A
:1019CE00EBEF0CF0F5EF0CF0000E386E000E396EEA
:1019DE00000E3A6E000E3B6E62EF0DF038C03CF01A
:1019EE0039C03DF03AC03EF03BC03FF0200E05EF4F
:1019FE000DF0D8903F323E323D323C32E82E00EFB1
:101A0E000DF03C50406E3A8EFF0E3816FF0E391612
:101A1E00FF0E3A16000E3B16960E415E41BE1CEFAF
:101A2E000DF01AEF0DF032EF0DF04150800A970FC6
:101A3E00D8B024EF0DF026EF0DF028EF0DF0EBEF00
:101A4E000CF0D8903B323A3239323832413E28EFE0
:101A5E000DF04AEF0DF01F0E416438EF0DF03AEF26
:101A6E000DF042EF0DF0EBEF0CF0D8903836393622
:101A7E003A363B3641064150D8A448EF0DF04AEFB6
:101A8E000DF03CEF0DF04050D8B450EF0DF052EF8A
:101A9E000DF05AEF0DF03B1E3A1E391E386C000E3B
:101AAE0039223A223B2238C038F039C039F03AC0D8
:101ABE003AF03BC03BF012000350D8B469EF0DF082
:101ACE006BEF0DF073EF0DF00350D8A471EF0DF026
:101ADE0073EF0DF078EF0DF00150C6EC0FF0B7EF8D
:101AEE000DF00350D96EDA6A090ED926DE50DE10DB
:101AFE00D8B484EF0DF086EF0DF09FEF0DF003508C
:101B0E00D96EDA6A090ED9260350E16EE26A020E28
:101B1E00E126DE50E65CE650800A086EDE50800A52
:101B2E000858D8B09DEF0DF09FEF0DF0B7EF0DF008
:101B3E000350D96EDA6A020ED926DF50046E0350B6
:101B4E00D96EDA6ADF500424D96EDA6A01C0DFFF7B
:101B5E000350D96EDA6A020ED926DE2A000EDD2275
:101B6E001200036E0F0EC16E93809392929A949E02
:101B7E00C6500318F00B0318C66E310E0118D8A408
:101B8E00CBEF0DF0CDEF0DF0D1EF0DF0C688C78C79
:101B9E00F6EF0DF0320E0118D8A4D8EF0DF0DAEFF3
:101BAE000DF0DEEF0DF0C698C78CF6EF0DF0330E8C
:101BBE000118D8A4E5EF0DF0E7EF0DF0EBEF0DF007
:101BCE00C688C79CF6EF0DF0340E0118D8A4F2EFBC
:101BDE000DF0F4EF0DF0F6EF0DF0C698C79C02B0C5
:101BEE0002D0C79E01D0C78EC68A1200956A8C6A33
:101BFE00939693988A968A988A96380E8C6E8A88CF
:101C0E00040E056E0C0E046E340EE82EFED7042E56
:101C1E00FCD7052EFAD78A980C0E8C6E8A88040E85
:101C2E00056E0C0E046E340EE82EFED7042EFCD775
:101C3E00052EFAD78A98A0EC0FF0020E8C6E8A88C9
:101C4E00040E056E0C0E046E340EE82EFED7042E16
:101C5E00FCD7052EFAD78A98010E016E010E39ECCB
:101C6E000EF01200036E8A9669EF0EF001507F0F90
:101C7E008C6E8A884E0E026EEB0EE82EFED7022E6A
:101C8E00FCD700008A9874EF0EF00150BF0F8C6ED7
:101C9E008A884E0E026EEB0EE82EFED7022EFCD771
:101CAE0000008A9874EF0EF0800E8C6E8A884E0EAD
:101CBE00026EEB0EE82EFED7022EFCD700008A989D
:101CCE0074EF0EF00350010AD8B43DEF0EF0030A84
:101CDE00D8B44CEF0EF05BEF0EF012000A50D96E36
:101CEE00DA6ADFCFF6FF080EF76E0800F550250A08
:101CFE00D8A484EF0EF086EF0EF099EF0EF00A5096
:101D0E00D96EDA6ADF2A000E0001A36F000EA26FF1
:101D1E00A2C0B0F0A469A5690A50D96EDA6ADF2AAA
:101D2E00AAEF0EF00A50D96EDA6ADFCFF6FF080E70
:101D3E00F76E0800F550016E026A09C003F063ECFD
:101D4E000DF093EF0EF012000600F2A4B1EF0EF0BC
:101D5E00B3EF0EF0DCEF0EF0070E5B245B6E000EA1
:101D6E005C205C6E5B04010E5C58D8A0C1EF0EF0D7
:101D7E00C3EF0EF0C7EF0EF0000E5C6E000E5B6E42
:101D8E00000184515B5C85515C58D8B0D1EF0EF0E8
:101D9E00D3EF0EF0D6EF0EF08A84D7EF0EF08A94C2
:101DAE00000ED76E000ED66EF2945F921100046E86
:101DBE000D0E0464E5EF0EF0E7EF0EF0EDEF0EF012
:101DCE00000E026E000E016E05EF0FF0C26A04C027
:101DDE0003F003460346C2500318C30B0318C26E2A
:101DEE00C280C282C2B2FEEF0EF000EF0FF0F9EF2A
:101DFE000EF0C290C3CF01F0C4CF02F01200000E5D
:101E0E003C1A000E3D1A000E3E1A800E3F1A38C0C4
:101E1E0028F039C029F03AC02AF03BC02BF03CC064
:101E2E002CF03DC02DF03EC02EF03FC02FF00FEC39
:101E3E0004F028C038F029C039F02AC03AF02BC07F
:101E4E003BF012000DC00FF035EF0FF00CC009F093
:101E5E000F0E0A6E0EC00BF075EC0EF00FC0F6FFF3
:101E6E00080EF76E0800F5500009D8A441EF0FF0E8
:101E7E0043EF0FF02DEF0FF0000E0D6E000E0C6EF7
:101E8E001200000E046E000E036E57EF0FF002509C
:101E9E000324D96EDA6ADF50AEEC0FF0034A042A3F
:101EAE0002500324D96EDA6ADF50D8A461EF0FF026
:101EBE0063EF0FF04EEF0FF01200120E126E10C005
:101ECE0013F0000E166E000E156E000E1D6E000E37
:101EDE001C6E130E0C6E11C00DF0120E0E6E29EC50
:101EEE000FF010501524D96EDA6ADF6A120000EE78
:101EFE0060F0610EEE6AE806FDE15E6A5D6A5C6A9C
:101F0E005B6A5F905F92000EF86E000145EF0AF07B
:101F1E00F29EF29CD08EF184F294F28A480ED56E27
:101F2E00F284F28EF28CD58E000ED76E000ED66E27
:101F3E0012008A96010E8C6E8A884E0E016EEB0E82
:101F4E00E82EFED7012EFCD700008A981200016EF3
:101F5E008A8601C08CFF8A88C80EE82EFED78A9822
:101F6E001200016E01C0C1FFC26A8F0EC06E120058
:101F7E00016E01C0C9FF120093948A9412001200E0
:020000040030CA
:0E000000040E191EFF8385FF0FC00FE00F4096
:00000001FF
