:0400000007EF00F016
:0A0008005F8286ED0FF050EF11F05B
:10080000004D55455645204C494252454D454E54A4
:100810004500434F4E54524F4C4C4552203C3C00F7
:100820003E3E20524F424F542041524D004D5545BF
:1008300056452050415241004D4F56494D49454E75
:10084000544F00475541524441444F00454C2052BB
:100850004F424F5400475241424152004552524F7D
:1008600052004D454E5500002B50800B346E2B50DE
:100870002B24366E2AAE3FEF04F041EF04F042EF36
:1008800004F036803650D8B448EF04F04AEF04F054
:100890005EEF04F03628D8A450EF04F052EF04F0D5
:1008A0005AEF04F0000E286E000E296E000E2A6E1C
:1008B000000E2B6E2A8E2B6A66EF04F0000E286E57
:1008C000000E296E000E2A6E000E2B6E2F50800B2C
:1008D000356E34503518D8B470EF04F072EF04F070
:1008E00073EF04F0348C2F502F24356E2EAE7BEF37
:1008F00004F07DEF04F07EEF04F035803550D8B47D
:1009000084EF04F086EF04F09AEF04F03528D8A4C1
:100910008CEF04F08EEF04F096EF04F0000E2C6ED6
:10092000000E2D6E000E2E6E000E2F6E2E8E2F6A74
:10093000A2EF04F0000E2C6E000E2D6E000E2E6E37
:10094000000E2F6E3650355CD8B0A9EF04F0ABEF37
:1009500004F0D2EF04F034ACB0EF04F0B2EF04F0E6
:10096000B4EF04F0800E341A36C037F035C036F0DC
:1009700037C035F028C037F02CC028F037C02CF035
:1009800029C037F02DC029F037C02DF02AC037F02C
:100990002EC02AF037C02EF02BC037F02FC02BF01E
:1009A00037C02FF0376A365035C030F0316A305ECC
:1009B000000E315A31BEE6EF04F0315009E11A0E53
:1009C000305CD8A0E6EF04F0E8EF04F01FEF05F08C
:1009D000285029102A102B10D8A4F1EF04F0F4EFBE
:1009E00004F0010EF5EF04F0000E376E000E286ED5
:1009F000000E296E000E2A6E000E2B6E35C036F0EA
:100A000028EF05F037A007EF05F009EF05F00FEF2D
:100A100005F0D89037300109376E11EF05F0D89006
:100A2000373228A016EF05F018EF05F019EF05F0A2
:100A3000378E2B342B322A3229322832362A35503F
:100A4000365CD8A026EF05F028EF05F002EF05F0A0
:100A500034BC2DEF05F02FEF05F06FEF05F03650A9
:100A6000D8A435EF05F037EF05F041EF05F0000EA3
:100A7000286E000E296E000E2A6E000E2B6E8EEF71
:100A800006F02C5028262D5029222E502A222F5095
:100A90002B222BA04EEF05F050EF05F0FCEF05F0F8
:100AA00037A055EF05F057EF05F05DEF05F0D89052
:100AB00037300109376E5FEF05F0D890373228A044
:100AC00064EF05F066EF05F067EF05F0378E2B3425
:100AD0002B322A3229322832362AFCEF05F02C50EC
:100AE000285C2D5029582E502A582B50800A306EE1
:100AF0002F50800A3058D8B080EF05F082EF05F013
:100B0000ADEF05F028502C5C306E29502D58316E19
:100B10002A502E58326E2B502F58336EFF0E302431
:100B2000286EFF0E3120296EFF0E32202A6EFF0E36
:100B300033202B6E800E341A376C3750D8A4A3EFB5
:100B400005F0A5EF05F0B5EF05F0010E2826000E23
:100B500029222A222B22B5EF05F02C50285E2D5099
:100B6000295A2E502A5A2F502B5A285029102A1011
:100B70002B10D8A4BEEF05F0C0EF05F0F5EF05F09F
:100B80003750D8A4C6EF05F0C8EF05F0F5EF05F033
:100B9000000E286E000E296E000E2A6E000E2B6EBF
:100BA0008EEF06F0D890283629362A362B3637AE07
:100BB000DCEF05F0DEEF05F0DFEF05F0288037A071
:100BC000E4EF05F0E6EF05F0EAEF05F0D880373600
:100BD000ECEF05F0D89037363650D8B4F2EF05F088
:100BE000F4EF05F0F5EF05F036062AAEFAEF05F062
:100BF000FCEF05F0D2EF05F0356A37AE02EF06F0F4
:100C000004EF06F01CEF06F037C030F07F0E301610
:100C1000D8B40DEF06F00FEF06F013EF06F0010E5B
:100C2000356E1CEF06F028A018EF06F01AEF06F05C
:100C30001CEF06F00FEF06F03550D8B422EF06F0A7
:100C400024EF06F04FEF06F0010E2826000E2922B1
:100C50002A222B222BA02FEF06F031EF06F04FEFC8
:100C600006F028C030F029C031F02AC032F02BC085
:100C700033F03334333232323132303230C028F054
:100C800031C029F032C02AF033C02BF03628D8B456
:100C90004CEF06F04EEF06F04FEF06F0362A3628FE
:100CA000D8B455EF06F057EF06F05FEF06F0365078
:100CB000D8A45DEF06F05FEF06F070EF06F0000ECF
:100CC000286E000E296E000E2A6E000E2B6E365016
:100CD000D8A46DEF06F06FEF06F070EF06F0346AFF
:100CE00036A075EF06F077EF06F07AEF06F02A8E61
:100CF0007BEF06F02A9ED89036302B6E34AE83EF11
:100D000006F085EF06F086EF06F02B8E28C028F05F
:100D100029C029F02AC02AF02BC02BF01200125053
:100D2000800B1B6E12501224216E11AE9AEF06F04A
:100D30009CEF06F09DEF06F021802150D8B4A3EF80
:100D400006F0A5EF06F0B8EF06F02128D8A4ABEF27
:100D500006F0ADEF06F0B5EF06F0000E0F6E000ED8
:100D6000106E000E116E000E126E118EC0EF06F0A6
:100D7000000E0F6E000E106E000E116E000E126E41
:100D80001650800B1B1A16501624206E15AECBEF92
:100D900006F0CDEF06F0CEEF06F020802050D8B45C
:100DA000D4EF06F0D6EF06F0E9EF06F02028D8A43D
:100DB000DCEF06F0DEEF06F0E6EF06F0000E136E55
:100DC000000E146E000E156E000E166E158EF1EFED
:100DD00006F0000E136E000E146E000E156E000E5F
:100DE000166E2050D8B4F7EF06F0F9EF06F001EFD9
:100DF00007F02150D8A4FFEF06F001EF07F00BEF4A
:100E000007F0000E0F6E000E106E000E116E000E39
:100E1000126EA1EF08F015500F02F3CF26F0F4CFB9
:100E200027F026501C6E1D6A1E6A1F6A2750226E0C
:100E3000236A246A256A14501002F3CF26F0F4CFF7
:100E400027F026501C26000E1D221E221F2227508E
:100E50002226000E23222422252213501102F3CF32
:100E600026F0F4CF27F026501C26000E1D221E224D
:100E70001F2227502226000E2322242225221EC0B4
:100E80001FF01DC01EF01CC01DF01C6A1350100284
:100E9000F3CF26F0F4CF27F026501C2627501D2232
:100EA000000E1E22000E1F2214500F02F3CF26F058
:100EB000F4CF27F026501C2627501D22000E1E229C
:100EC000000E1F221EC01FF01DC01EF01CC01DF012
:100ED0001C6A13500F02F3CF26F0F4CF27F02650F0
:100EE0001C2627501D22000E1E22000E1F22155008
:100EF0001002F3CF26F0F4CF27F0265022262750F9
:100F00002322000E2422000E252214501102F3CFBA
:100F100026F0F4CF27F02650222627502322000E59
:100F20002422000E252215501102F3CF26F0F4CF13
:100F300027F02650176E2750186E196A1A6A19C0C2
:100F40001AF018C019F017C018F0176A17502226A7
:100F500018502322195024221A5025221CC017F0A1
:100F60001DC018F01EC019F01FC01AF0190EBEEFF8
:100F700007F0D8901A32193218321732E82EB9EF2A
:100F800007F01750222618502322195024221A50F5
:100F900025221EC01FF01DC01EF01CC01DF01C6AC3
:100FA000205021C017F0186A1726000E1822820E52
:100FB0001724266EFF0E1820276EF4EF07F0D89046
:100FC00022362336243625361FAEE9EF07F0EBEF45
:100FD00007F0ECEF07F02280D8901C361D361E3645
:100FE0001F362606D8A0270624AEF9EF07F0FBEF40
:100FF00007F0DFEF07F0206A1FAE01EF08F003EF04
:1010000008F027EF08F0FF0E1C14176EFF0E1D14DA
:10101000186EFF0E1E14196E7F0E1F141A6E1750D5
:10102000181019101A10D8B418EF08F01AEF08F0B9
:101030001EEF08F0010E206E27EF08F022A023EF2C
:1010400008F025EF08F027EF08F01AEF08F020501D
:10105000D8B42DEF08F02FEF08F053EF08F0010E91
:101060002226000E23222422252225A03AEF08F072
:101070003CEF08F053EF08F022C017F023C018F03F
:1010800024C019F025C01AF01A341A321932183255
:10109000173217C022F018C023F019C024F01AC06C
:1010A00025F0264A272A27BE5EEF08F0275008E1E0
:1010B0002628D8A05EEF08F060EF08F06AEF08F08D
:1010C000000E226E000E236E800E246E7F0E256EA3
:1010D00097EF08F027BE77EF08F0275006E12604C7
:1010E000D8B075EF08F077EF08F082EF08F0000E47
:1010F000226E000E236E000E246E000E256E1B6AFB
:1011000097EF08F026C021F0FF0E2216FF0E2316DF
:101110007F0E2416000E251621A091EF08F093EF04
:1011200008F094EF08F0248ED8902130256E1B50E3
:10113000251222C00FF023C010F024C011F025C0EA
:1011400012F012004350800B506E43504324576EF0
:1011500042AEADEF08F0AFEF08F0B0EF08F0578007
:101160005750D8B4B6EF08F0B8EF08F0CCEF08F05D
:101170005728D8A4BEEF08F0C0EF08F0C8EF08F079
:10118000000E406E000E416E000E426E000E436E69
:10119000428E436AD4EF08F0000E406E000E416E9E
:1011A000000E426E000E436E4750800B501A47509F
:1011B0004724586E46AEDFEF08F0E1EF08F0E2EFAB
:1011C00008F058805850D8B4E8EF08F0EAEF08F07B
:1011D000FEEF08F05828D8A4F0EF08F0F2EF08F07E
:1011E000FAEF08F0000E446E000E456E000E466EDB
:1011F000000E476E468E476A06EF09F0000E446EF9
:10120000000E456E000E466E000E476E44504510AF
:1012100046104710D8A40FEF09F011EF09F029EF9D
:1012200009F0000E406E000E416E000E426E000E80
:10123000436E800E42127F0E43125050431240C044
:1012400040F041C041F042C042F043C043F069EF7A
:101250000AF05750D8A42FEF09F031EF09F03BEF17
:1012600009F0000E406E000E416E000E426E000E40
:10127000436E69EF0AF0585057C048F0496A485E1B
:10128000000E495A7F0E4824516E000E4920526EBE
:1012900040C04CF041C04DF042C04EF043C04FF052
:1012A000000E406E000E416E000E426E000E436E48
:1012B000000E536E000E546E000E556E000E566EEC
:1012C000586A9BEF09F05850D8B469EF09F06BEFFA
:1012D00009F082EF09F0D8904C364D364E364F3635
:1012E000D890403641364236433656AE7AEF09F052
:1012F0007CEF09F07DEF09F04080D89053365436EA
:101300005536563644504C5C45504D5846504E5814
:1013100047504F58D8A08FEF09F091EF09F09AEF9E
:1013200009F0568C44504C5E45504D5A46504E5A2A
:1013300047504F5A582A190E5864A1EF09F0A3EFED
:1013400009F063EF09F04C504D104E104F10D8B417
:10135000ACEF09F0AEEF09F0C6EF09F05380C6EF2D
:1013600009F0D890403641364236433656AEBBEF90
:1013700009F0BDEF09F0BEEF09F04080D890533678
:101380005436553656365106D8A0520642AECBEFEB
:1013900009F0CDEF09F0B1EF09F0586A56AED3EF7E
:1013A00009F0D5EF09F0F9EF09F0FF0E5314486E7C
:1013B000FF0E5414496EFF0E55144A6E7F0E5614DC
:1013C0004B6E485049104A104B10D8B4EAEF09F060
:1013D000ECEF09F0F0EF09F0010E586EF9EF09F0AB
:1013E00040A0F5EF09F0F7EF09F0F9EF09F0ECEFA5
:1013F00009F05850D8B4FFEF09F001EF0AF025EFDB
:101400000AF0010E4026000E41224222432243A050
:101410000CEF0AF00EEF0AF025EF0AF040C048F09A
:1014200041C049F042C04AF043C04BF04B344B320C
:101430004A324932483248C040F049C041F04AC0BF
:1014400042F04BC043F0514A522A52BE30EF0AF0EC
:10145000525008E15128D8A030EF0AF032EF0AF0DC
:101460003DEF0AF0000E526E5168000E406E000E05
:10147000416E000E426E000E436E52BE4AEF0AF0FD
:10148000525006E15104D8B048EF0AF04AEF0AF092
:1014900057EF0AF0000E526E000E516E000E406EB5
:1014A000000E416E000E426E000E436E506A51C037
:1014B00057F057A05EEF0AF060EF0AF063EF0AF012
:1014C000428E64EF0AF0429ED8905730436E1DEF73
:1014D00009F01200000E5B6E000E5A6E1CEF0CF04D
:1014E00082A075EF0AF077EF0AF080EF0AF082B081
:1014F0007CEF0AF07EEF0AF077EF0AF05A4A5B2A97
:10150000000ECAEC10F001C0B8F002C0B9F0010E34
:10151000CAEC10F001C0B4F002C0B5F0020ECAEC83
:1015200010F001C0B0F002C0B1F0030ECAEC10F030
:1015300001C0ACF002C0ADF0000E0001CC6F000E97
:10154000CD6F000ECE6F000ECF6F000ED06FC00EAD
:10155000D16F7F0ED26F440ED36F000ED46F000E8A
:10156000D56F7A0ED66FC30ED76F000ED86F000EF0
:10157000D96F7A0EDA6F430EDB6FB8C0DCF0B9C0FA
:10158000DDF001EC0EF0CCC0B6F0CDC0B7F0000E2F
:101590000001CC6F000ECD6F000ECE6F000ECF6F2E
:1015A000000ED06FC00ED16F7F0ED26F440ED36F7E
:1015B000000ED46F000ED56F7A0ED66FC30ED76FA4
:1015C000000ED86F000ED96F7A0EDA6F430EDB6F04
:1015D000B4C0DCF0B5C0DDF001EC0EF0CCC0B2F070
:1015E000CDC0B3F0000E0001CC6F000ECD6F000E29
:1015F000CE6F000ECF6F000ED06FC00ED16F7F0E7A
:10160000D26F440ED36F000ED46F000ED56F7A0EDA
:10161000D66FC30ED76F000ED86F000ED96F7A0E3B
:10162000DA6F430EDB6FB0C0DCF0B1C0DDF001EC6F
:101630000EF0CCC0AEF0CDC0AFF0000E0001CC6F0C
:10164000000ECD6F000ECE6F000ECF6F000ED06F6C
:10165000C00ED16F7F0ED26F440ED36F000ED46FC9
:10166000000ED56F7A0ED66FC30ED76F000ED86FEF
:10167000000ED96F7A0EDA6F430EDB6FACC0DCF070
:10168000ADC0DDF001EC0EF0CCC0AAF0CDC0ABF0E7
:101690000001B7BF57EF0BF0B75107E11E0EB65D63
:1016A000D8B055EF0BF057EF0BF065EF0BF0B7AF7D
:1016B00063EF0BF0E30EB65DFF0EB759D8B063EFE2
:1016C0000BF065EF0BF06FEF0BF0000EB76F010E34
:1016D000B66FB6C0B6F0B7C0B7F077EF0BF0000E3C
:1016E000B76F000EB66FB6C0B6F0B7C0B7F0B3BFF5
:1016F00085EF0BF0B35107E11E0EB25DD8B083EF5A
:101700000BF085EF0BF093EF0BF0B3AF91EF0BF015
:10171000E30EB25DFF0EB359D8B091EF0BF093EF2B
:101720000BF09DEF0BF0000EB36F010EB26FB2C065
:10173000B2F0B3C0B3F0A5EF0BF0000EB36F000E24
:10174000B26FB2C0B2F0B3C0B3F0AFBFB3EF0BF043
:10175000AF5107E11E0EAE5DD8B0B1EF0BF0B3EFA5
:101760000BF0C1EF0BF0AFAFBFEF0BF0E30EAE5DD0
:10177000FF0EAF59D8B0BFEF0BF0C1EF0BF0CBEFBE
:101780000BF0000EAF6F010EAE6FAEC0AEF0AFC08B
:10179000AFF0D3EF0BF0000EAF6F000EAE6FAEC028
:1017A000AEF0AFC0AFF0ABBFE1EF0BF0AB5107E174
:1017B0001E0EAA5DD8B0DFEF0BF0E1EF0BF0EFEFFC
:1017C0000BF0ABAFEDEF0BF0E30EAA5DFF0EAB59E4
:1017D000D8B0EDEF0BF0EFEF0BF0F9EF0BF0000EE0
:1017E000AB6F010EAA6FAAC0AAF0ABC0ABF001EFBD
:1017F0000CF0000EAB6F000EAA6FAAC0AAF0ABC02F
:10180000ABF0010EB625BA6F000EB721BB6F899AF7
:10181000B651BBEC11F04E0E596EEB0EE82EFED712
:10182000592EFCD70000898A4E0E596EEB0EE82E19
:10183000FED7592EFCD700005A505B10D8B423EFC6
:101840000CF025EF0CF070EF0AF01200C150F00B15
:101850000B09C16E1CEC10F00B0EADEC11F01CEC82
:1018600010F084EC11F0B4EC11F093929480BC0E63
:10187000106E200E116E6AEC11F0020E016E010E58
:1018800058EC10F0BC0E026E34EC11F0BC0E106E71
:10189000120E116E6AEC11F0010E016E020E58EC80
:1018A00010F0BC0E026E34EC11F03D0E5D6EE10ED8
:1018B0005C6E400EE82EFED75C2EFCD75D2EFAD76C
:1018C00095EC11F0310E016E000E026E000ED7EC99
:1018D0000FF0070E5D6E170E5C6E6A0EE82EFED7D7
:1018E0005C2EFCD75D2EFAD700D007EF0DF0BC0EB2
:1018F000106E010E116E6AEC11F0010E016E010EF8
:1019000058EC10F0BC0E026E34EC11F0BC0E106EF0
:101910004C0E116E6AEC11F0040E016E020E58ECC2
:1019200010F0BC0E026E34EC11F082A09AEF0CF0B5
:101930009CEF0CF021EF0DF082B0A1EF0CF0A3EFC3
:101940000CF09CEF0CF06AEC0AF021EF0DF0BC0EED
:10195000106E2D0E116E6AEC11F0030E016E010E69
:1019600058EC10F0BC0E026E34EC11F0BC0E106E90
:10197000550E116E6AEC11F0050E016E020E58EC58
:1019800010F0BC0E026E34EC11F021EF0DF0BC0E25
:10199000106E380E116E6AEC11F0030E016E010E1E
:1019A00058EC10F0BC0E026E34EC11F0BC0E106E50
:1019B000430E116E6AEC11F0040E016E020E58EC2B
:1019C00010F0BC0E026E34EC11F021EF0DF0BC0EE5
:1019D000106E5C0E116E6AEC11F0020E016E010EBB
:1019E00058EC10F0BC0E026E34EC11F0BC0E106E10
:1019F000620E116E6AEC11F0020E016E020E58ECCE
:101A000010F0BC0E026E34EC11F021EF0DF0A8C006
:101A10005CF0A9C05DF05D50000AD8B412EF0DF083
:101A2000E7EF0CF05C50000AD8B477EF0CF0010A35
:101A3000D8B4A7EF0CF0030AD8B4C7EF0CF0E7EF67
:101A40000CF095EC11F007EF0DF007EF00F0096EC8
:101A50000950D8B42EEF0DF030EF0DF052EF0DF02D
:101A600004BE37EF0DF035EF0DF052EF0DF001C071
:101A700005F002C006F003C007F004C008F0051E20
:101A8000061E071E081E052A000E0622072208222F
:101A900005C00BF006C00CF007C00DF008C00EF03A
:101AA0005AEF0DF001C00BF002C00CF003C00DF0B6
:101AB00004C00EF00150021003100410D8A463EF0C
:101AC0000DF065EF0DF06FEF0DF0000E016E000EE2
:101AD000026E000E036E000E046E00EF0EF0960E06
:101AE0000A6E79EF0DF00A2AD8900E320D320C32C0
:101AF0000B32000E0B14056E000E0C14066E000E59
:101B00000D14076EFE0E0E14086E05500610071019
:101B10000810D8A48EEF0DF090EF0DF073EF0DF0DC
:101B20009EEF0DF00A2A010E0B26000E0C220D224C
:101B30000E22D8900E320D320C320B32000E0B14E6
:101B4000056E000E0C14066E000E0D14076EFF0ECF
:101B50000E14086E0550061007100810D8A4B3EF35
:101B60000DF0B5EF0DF092EF0DF0BDEF0DF00A06A0
:101B7000D8900B360C360D360E360DBEC2EF0DF07A
:101B8000C4EF0DF0CCEF0DF0020E0A60CAEF0DF0BD
:101B9000CCEF0DF0B7EF0DF00AB0D1EF0DF0D3EFB1
:101BA0000DF0D4EF0DF00D9ED8900A320AC005F06A
:101BB000066A076A086A05C008F0076A066A056AC5
:101BC00005500B1206500C1207500D1208500E1241
:101BD0000950D8B4EEEF0DF0F0EF0DF0F8EF0DF086
:101BE00004BEF7EF0DF0F5EF0DF0F8EF0DF00E8EEF
:101BF0000BC001F00CC002F00DC003F00EC004F0E9
:101C00001200D4C03CF0D5C03DF0D6C03EF0D7C0E5
:101C10003FF0D8C038F0D9C039F0DAC03AF0DBC0B4
:101C20003BF0F2EC10F038C040F039C041F03AC05F
:101C300042F03BC043F0CCC03CF0CDC03DF0CEC044
:101C40003EF0CFC03FF0D0C038F0D1C039F0D2C0A4
:101C50003AF0D3C03BF0F2EC10F038C044F039C099
:101C600045F03AC046F03BC047F0A2EC08F040C057
:101C7000E4F041C0E5F042C0E6F043C0E7F0D4C074
:101C800038F0D5C039F0D6C03AF0D7C03BF0CCC060
:101C900013F0CDC014F0CEC015F0CFC016F0E4C0E4
:101CA0000FF0E5C010F0E6C011F0E7C012F08FECC5
:101CB00006F00FC03CF010C03DF011C03EF012C065
:101CC0003FF0F2EC10F038C0DEF039C0DFF03AC07F
:101CD000E0F03BC0E1F0DEC02CF0DFC02DF0E0C052
:101CE0002EF0E1C02FF0E4C013F0E5C014F0E6C020
:101CF00015F0E7C016F0DCC001F0DDC002F0000E08
:101D000002BEFF0E036E046E010E27EC0DF001C043
:101D10000FF002C010F003C011F004C012F08FECFD
:101D200006F00FC028F010C029F011C02AF012C030
:101D30002BF034EC04F028C038F029C039F02AC068
:101D40003AF02BC03BF0AEEC0EF038C0E2F039C0F8
:101D5000E3F0E2C0CCF0E3C0CDF012003A343B3403
:101D6000416E4150D8A4B7EF0EF0B9EF0EF0C3EFBB
:101D70000EF0000E386E000E396E000E3A6E000E38
:101D80003B6E30EF0FF038C03CF039C03DF03AC048
:101D90003EF03BC03FF0200ED3EF0EF0D8903F3224
:101DA0003E323D323C32E82ECEEF0EF03C50406EDB
:101DB0003A8EFF0E3816FF0E3916FF0E3A16000E39
:101DC0003B16960E415E41BEEAEF0EF0E8EF0EF0D4
:101DD00000EF0FF04150800A970FD8B0F2EF0EF0ED
:101DE000F4EF0EF0F6EF0EF0B9EF0EF0D8903B32B4
:101DF0003A3239323832413EF6EF0EF018EF0FF03A
:101E00001F0E416406EF0FF008EF0FF010EF0FF018
:101E1000B9EF0EF0D890383639363A363B364106AF
:101E20004150D8A416EF0FF018EF0FF00AEF0FF0A3
:101E30004050D8B41EEF0FF020EF0FF028EF0FF056
:101E40003B1E3A1E391E386C000E39223A223B22C4
:101E500038C038F039C039F03AC03AF03BC03BF0F6
:101E600012000350D8B437EF0FF039EF0FF041EF05
:101E70000FF00350D8A43FEF0FF041EF0FF046EF03
:101E80000FF00150C0EC11F085EF0FF00350D96E48
:101E9000DA6A090ED926DE50DE10D8B452EF0FF000
:101EA00054EF0FF06DEF0FF00350D96EDA6A090EA0
:101EB000D9260350E16EE26A020EE126DE50E65CAE
:101EC000E650800A086EDE50800A0858D8B06BEFE2
:101ED0000FF06DEF0FF085EF0FF00350D96EDA6A57
:101EE000020ED926DF50046E0350D96EDA6ADF5035
:101EF0000424D96EDA6A01C0DFFF0350D96EDA6AB2
:101F0000020ED926DE2A000EDD2212000600F2A4FF
:101F10008CEF0FF08EEF0FF0D5EF0FF0070E0001F2
:101F2000A625A66F000EA721A76FA605010EA7592B
:101F3000D8A09DEF0FF09FEF0FF0A3EF0FF0000E72
:101F4000A76F000EA66F8851A65D8951A759D8B01A
:101F5000ACEF0FF0AEEF0FF0B1EF0FF08C80B2EFFF
:101F60000FF08C908A51A65D8B51A759D8B0BBEF6A
:101F70000FF0BDEF0FF0C0EF0FF08C82C1EF0FF04C
:101F80008C928C51A65D8D51A759D8B0CAEF0FF035
:101F9000CCEF0FF0CFEF0FF08C84D0EF0FF08C94DC
:101FA000000ED76E000ED66EF2945F921100036E93
:101FB0000F0EC16E93809392929A949EC65003180E
:101FC000F00B0318C66E310E0118D8A4EAEF0FF01B
:101FD000ECEF0FF0F0EF0FF0C688C78C15EF10F0A4
:101FE000320E0118D8A4F7EF0FF0F9EF0FF0FDEF64
:101FF0000FF0C698C78C15EF10F0330E0118D8A457
:1020000004EF10F006EF10F00AEF10F0C688C79C3E
:1020100015EF10F0340E0118D8A411EF10F013EFE3
:1020200010F015EF10F0C698C79C02B002D0C79E02
:1020300001D0C78EC68A1200956A8C6A93969398CF
:102040008A968A988A96380E8C6E8A88040E056E57
:102050000C0E046E340EE82EFED7042EFCD7052E8F
:10206000FAD78A980C0E8C6E8A88040E056E0C0EB8
:10207000046E340EE82EFED7042EFCD7052EFAD7B8
:102080008A9895EC11F0020E8C6E8A88040E056E0B
:102090000C0E046E340EE82EFED7042EFCD7052E4F
:1020A000FAD78A98010E016E010E58EC10F012005A
:1020B000036E8A9688EF10F001507F0F8C6E8A882D
:1020C0004E0E026EEB0EE82EFED7022EFCD700005D
:1020D0008A9893EF10F00150BF0F8C6E8A884E0ED5
:1020E000026EEB0EE82EFED7022EFCD700008A9877
:1020F00093EF10F0800E8C6E8A884E0E026EEB0EFF
:10210000E82EFED7022EFCD700008A9893EF10F03D
:102110000350010AD8B45CEF10F0030AD8B46BEF97
:1021200010F07AEF10F012000A50D96EDA6ADFCFA1
:10213000F6FF080EF76E0800F550250AD8A4A3EFA5
:1021400010F0A5EF10F0B8EF10F00A50D96EDA6A6F
:10215000DF2A000E0001A36F000EA26FA2C05EF086
:10216000A469A5690A50D96EDA6ADF2AC9EF10F0AE
:102170000A50D96EDA6ADFCFF6FF080EF76E080054
:10218000F550016E026A09C003F031EC0FF0B2EFB6
:1021900010F01200046E0D0E0464D1EF10F0D3EFB6
:1021A00010F0D9EF10F0000E026E000E016EF1EF8C
:1021B00010F0C26A04C003F003460346C25003187D
:1021C000C30B0318C26EC280C282C2B2EAEF10F023
:1021D000ECEF10F0E5EF10F0C290C3CF01F0C4CFE8
:1021E00002F01200000E3C1A000E3D1A000E3E1ABC
:1021F000800E3F1A38C028F039C029F03AC02AF0C2
:102200003BC02BF03CC02CF03DC02DF03EC02EF06A
:102210003FC02FF034EC04F028C038F029C039F06A
:102220002AC03AF02BC03BF012000DC00FF021EF96
:1022300011F00CC009F00F0E0A6E0EC00BF094ECFA
:1022400010F00FC0F6FF080EF76E0800F5500009F9
:10225000D8A42DEF11F02FEF11F019EF11F0000EAF
:102260000D6E000E0C6E1200000E046E000E036E5A
:1022700043EF11F002500324D96EDA6ADF50A3EC69
:1022800011F0034A042A02500324D96EDA6ADF509F
:10229000D8A44DEF11F04FEF11F03AEF11F012000A
:1022A0007E0EF66E230EF76E000EF86E0900F5CF67
:1022B000E8F00900F5CFE9F000EE60F06C0EEE6A90
:1022C000E806FDE15E6A5F905F92000EF86E000125
:1022D00026EF0CF0120E126E10C013F0000E166EE8
:1022E000000E156E000E1D6E000E1C6E130E0C6E91
:1022F00011C00DF0120E0E6E15EC11F010501524D9
:10230000D96EDA6ADF6A1200F29EF29CD08EF184F6
:10231000F294F28A480ED56EF284F28EF28CD58E4B
:10232000000ED76E000ED66E12008A96010E8C6ECD
:102330008A884E0E016EEB0EE82EFED7012EFCD7DA
:1023400000008A981200016E8A8601C08CFF8A887C
:10235000C80EE82EFED78A981200016E01C0C1FF98
:10236000C26A8F0EC06E120095908C9095928C92DE
:1023700095948C941200016E01C0C9FF12000100F7
:02238000120049
:020000040030CA
:0E000000040E191EFF8385FF0FC00FE00F4096
:00000001FF
