:0400000060EF04F0B9
:100800000000026E0F0EC16E93809382928A949EB6
:10081000C6500218F00B0218C66E310E0118D8A48B
:1008200014EF04F016EF04F01AEF04F0C688C78C3A
:100830003FEF04F0320E0118D8A421EF04F023EFAB
:1008400004F027EF04F0C698C78C3FEF04F0330E96
:100850000118D8A42EEF04F030EF04F034EF04F0C8
:10086000C688C79C3FEF04F0340E0118D8A43BEFB4
:1008700004F03DEF04F03FEF04F0C698C79CC68A31
:100880001200310E016E040E01EC04F0070E046E2E
:10089000170E036E6A0EE82EFED7032EFCD7042E29
:1008A000FAD700D065EC04F04E0E036EEB0EE82E86
:1008B000FED7032EFCD7000052EF04F000EF00F04B
:0E08C000000EF86E000141EF04F0C950120066
:020000040030CA
:0E000000040E191EFF8385FF0FC00FE00F4096
:00000001FF
